:100000000C942A000C943F000C943F000C943F0089
:100010000C943F000C943F000C943F000C943F0064
:100020000C943F000C945D000C943F000C943F0036
:100030000C943F000C943F000C943F000C943F0044
:100040000C943F000C943F000C943F000C943F0034
:100050000C943F0011241FBECFE5D8E0DEBFCDBF1A
:1000600010E0A0E6B0E0E6E1F1E002C005900D92FC
:10007000A236B107D9F70E9484000C9489000C9431
:1000800000008FEF87BB81BB18BA12BA8EB58160B2
:100090008EBD809160008CBD809160009091610068
:1000A0008827929582958F7089279F7089278DBDAB
:1000B0008EB584608EBD789408951F920F920FB60E
:1000C0000F9211248F939F93809160008CBD80913B
:1000D0006000909161008827929582958F708927A2
:1000E0009F7089278DBD88B7846088BF8FEF88BBDC
:1000F000000018BA82BB000012BA9F918F910F9036
:100100000FBE0F901F9018950E94410080E090E074
:060110000895F894FFCFF2
:02011600DFB157
:00000001FF
